{
  "contractName": "Todolist",
  "abi": [
    {
      "constant": true,
      "inputs": [
        {
          "name": "",
          "type": "uint256"
        }
      ],
      "name": "tasks",
      "outputs": [
        {
          "name": "id",
          "type": "uint256"
        },
        {
          "name": "name",
          "type": "string"
        },
        {
          "name": "description",
          "type": "string"
        },
        {
          "name": "startTime",
          "type": "uint256"
        },
        {
          "name": "endTime",
          "type": "uint256"
        },
        {
          "name": "completed",
          "type": "bool"
        }
      ],
      "payable": false,
      "stateMutability": "view",
      "type": "function",
      "signature": "0x8d977672"
    },
    {
      "constant": true,
      "inputs": [],
      "name": "taskCount",
      "outputs": [
        {
          "name": "",
          "type": "uint256"
        }
      ],
      "payable": false,
      "stateMutability": "view",
      "type": "function",
      "signature": "0xb6cb58a5"
    },
    {
      "inputs": [],
      "payable": false,
      "stateMutability": "nonpayable",
      "type": "constructor",
      "signature": "constructor"
    },
    {
      "constant": false,
      "inputs": [
        {
          "name": "_name",
          "type": "string"
        },
        {
          "name": "_description",
          "type": "string"
        }
      ],
      "name": "createTask",
      "outputs": [],
      "payable": false,
      "stateMutability": "nonpayable",
      "type": "function",
      "signature": "0x292a4585"
    }
  ],
  "bytecode": "0x60806040526000805534801561001457600080fd5b506100986040805190810160405280600981526020017f576f726b206f75742100000000000000000000000000000000000000000000008152506040805190810160405280600781526020017f507573682075700000000000000000000000000000000000000000000000000081525061009d640100000000026401000000009004565b6101e9565b6000805460019081018083556040805160c0810182528281526020808201888152828401889052606083018790526080830187905260a0830187905293865284815291909420845181559151805192936100ff9390850192919091019061014e565b506040820151805161011b91600284019160209091019061014e565b50606082015160038201556080820151600482015560a0909101516005909101805460ff19169115159190911790555050565b828054600181600116156101000203166002900490600052602060002090601f016020900481019282601f1061018f57805160ff19168380011785556101bc565b828001600101855582156101bc579182015b828111156101bc5782518255916020019190600101906101a1565b506101c89291506101cc565b5090565b6101e691905b808211156101c857600081556001016101d2565b90565b6105b3806101f86000396000f3fe6080604052600436106100565763ffffffff7c0100000000000000000000000000000000000000000000000000000000600035041663292a4585811461005b5780638d97767214610197578063b6cb58a5146102bf575b600080fd5b34801561006757600080fd5b506101956004803603604081101561007e57600080fd5b81019060208101813564010000000081111561009957600080fd5b8201836020820111156100ab57600080fd5b803590602001918460018302840111640100000000831117156100cd57600080fd5b91908080601f016020809104026020016040519081016040528093929190818152602001838380828437600092019190915250929594936020810193503591505064010000000081111561012057600080fd5b82018360208201111561013257600080fd5b8035906020019184600183028401116401000000008311171561015457600080fd5b91908080601f0160208091040260200160405190810160405280939291908181526020018383808284376000920191909152509295506102e6945050505050565b005b3480156101a357600080fd5b506101c1600480360360208110156101ba57600080fd5b5035610397565b60405180878152602001806020018060200186815260200185815260200184151515158152602001838103835288818151815260200191508051906020019080838360005b8381101561021e578181015183820152602001610206565b50505050905090810190601f16801561024b5780820380516001836020036101000a031916815260200191505b50838103825287518152875160209182019189019080838360005b8381101561027e578181015183820152602001610266565b50505050905090810190601f1680156102ab5780820380516001836020036101000a031916815260200191505b509850505050505050505060405180910390f35b3480156102cb57600080fd5b506102d46104e6565b60408051918252519081900360200190f35b6000805460019081018083556040805160c0810182528281526020808201888152828401889052606083018790526080830187905260a083018790529386528481529190942084518155915180519293610348939085019291909101906104ec565b50604082015180516103649160028401916020909101906104ec565b50606082015160038201556080820151600482015560a0909101516005909101805460ff19169115159190911790555050565b600160208181526000928352604092839020805481840180548651600296821615610100026000190190911695909504601f810185900485028601850190965285855290949193929091908301828280156104335780601f1061040857610100808354040283529160200191610433565b820191906000526020600020905b81548152906001019060200180831161041657829003601f168201915b50505060028085018054604080516020601f60001961010060018716150201909416959095049283018590048502810185019091528181529596959450909250908301828280156104c55780601f1061049a576101008083540402835291602001916104c5565b820191906000526020600020905b8154815290600101906020018083116104a857829003601f168201915b50505050600383015460048401546005909401549293909290915060ff1686565b60005481565b828054600181600116156101000203166002900490600052602060002090601f016020900481019282601f1061052d57805160ff191683800117855561055a565b8280016001018555821561055a579182015b8281111561055a57825182559160200191906001019061053f565b5061056692915061056a565b5090565b61058491905b808211156105665760008155600101610570565b9056fea165627a7a723058206333d065de76fdae061e874643aebb225cc80f44a46f8a6df023a284833a55680029",
  "source": "pragma solidity ^0.5.0;\r\n\r\ncontract Todolist {\r\n\tuint public taskCount = 0;\r\n\r\n\tstruct Task {\r\n\t\tuint id;\r\n\t\tstring name;\r\n\t\tstring description;\r\n\t\tuint256 startTime;\r\n\t\tuint256 endTime;\r\n\t\tbool completed;\r\n\t}\r\n\r\n\tmapping(uint => Task) public tasks;\r\n\r\n\tconstructor() public {\r\n\t\tcreateTask(\"Work out!\", \"Push up\");\r\n\t}\r\n\r\n\tfunction createTask(string memory _name, string memory _description) public {\r\n\t\ttaskCount++;\r\n\t\ttasks[taskCount] = Task(taskCount, _name, _description, 0, 0, false);\r\n\r\n\t}\r\n}",
  "sourcePath": "D:/Code/eth-todo-list/contracts/Todolist.sol",
  "compiler": {
    "name": "solc",
    "version": "0.5.0+commit.1d4f565a.Emscripten.clang"
  },
  "schemaVersion": "3.0.1",
  "updatedAt": "2022-01-07T22:34:45.905Z",
  "devdoc": {
    "methods": {}
  },
  "userdoc": {
    "methods": {}
  }
}